:020000040800F2
:10000000A8BE002049020008610300085903000847
:100010005D030008510300084105000800000000CE
:10002000000000000000000000000000290400089B
:100030005503000800000000650300082D040008B7
:1000400063020008630200086302000863020008FC
:1000500063020008630200086302000863020008EC
:1000600063020008630200086302000863020008DC
:1000700063020008630200086302000863020008CC
:1000800063020008630200086302000863020008BC
:1000900063020008630200086302000863020008AC
:1000A000630200086302000863020008630200089C
:1000B00063020008ED040008630200086302000800
:1000C000630200086302000863020008630200087C
:1000D000630200086302000863020008630200086C
:1000E00063020008630200080505000863020008B7
:1000F000630200086302000863020008630200084C
:10010000630200086302000863020008630200083B
:10011000630200086302000863020008630200082B
:10012000630200086302000863020008630200081B
:10013000630200086302000863020008630200080B
:10014000630200086302000863020008F504000867
:1001500063020008630200086302000863020008EB
:1001600063020008630200086302000863020008DB
:100170006302000863020008630200080000000038
:10018000630200086302000800F002F800F04CF877
:100190000AA090E8000C82448344AAF10107DA45E2
:1001A00001D100F041F8AFF2090EBAE80F0013F0E8
:1001B000010F18BFFB1A43F0010318475C2E000023
:1001C0007C2E00000A4410F8014B14F00F0508BF04
:1001D00010F8015B240908BF10F8014B6D1E05D013
:1001E00010F8013B6D1E01F8013BF9D1641E03D0EC
:1001F000641E01F8015BFBD19142E4D3704700001B
:100200000023002400250026103A28BF78C1FBD81F
:10021000520728BF30C148BF0B6070471FB502F0BE
:100220009FFD1FBD10B510BD00F058F81146FFF737
:10023000F5FF00F083FC00F076F803B4FFF7F2FF5F
:1002400003BC00F07DF800000948804709480047DA
:10025000FEE7FEE7FEE7FEE7FEE7FEE7FEE7FEE776
:10026000FEE7FEE704480549054A064B70470000D3
:100270003104000889010008A8B60020A8BE0020AB
:10028000A8BA0020A8BA00204FF0000200B513461B
:1002900094469646203922BFA0E80C50A0E80C50A6
:1002A000B1F12001BFF4F7AF090728BFA0E80C5057
:1002B00048BF0CC05DF804EB890028BF40F8042B50
:1002C00008BF704748BF20F8022B11F0804F18BFBD
:1002D00000F8012B7047704770477047754600F073
:1002E0002BF8AE4605006946534620F007008546C8
:1002F00018B020B5FFF7B6FFBDE820404FF000066C
:100300004FF000074FF000084FF0000BAC46ACE890
:10031000C009ACE8C009ACE8C009ACE8C00921F0EC
:1003200007018D46704710B50446AFF300802046A4
:10033000BDE81040FFF781BF004870477001002002
:1003400001491820ABBEFEE72600020070470000FE
:10035000FEE7000070470000FEE70000FEE7000037
:10036000704700007047000010B5D3B140F2D01CB8
:10037000C2F2000C6144A1F1010C02E0013B944483
:100380000FD0002AFAD0A0F1010E6146104600BF3E
:1003900011F8014F01380EF8014FF9D10EF10100AB
:1003A000ECE7002010BD000010B5D3B140F2D01C26
:1003B000C2F2000C6144A1F1010C02E0013B944443
:1003C0000FD0002AFAD0A0F1010E6146104600BFFE
:1003D0001EF8014F013801F8014FF9D10EF101006B
:1003E000ECE7002010BD000000207047002070479F
:1003F000002070470020704780B5084611464FF432
:100400000072FFF7B1FF002818BF012080BD000077
:1004100080B5084611464FF40072FFF7C5FF00286B
:1004200018BF012080BD0000704700007047000029
:1004300080B582B04EF68851CEF200010A6843F6CC
:10044000080042F47002C4F202000A6050F8081C6E
:100450004FF0000C41F0010140F8081C01684CF21B
:100460004F3241F080010160CDF804C0019B9342FE
:1004700008D84CF2503300BF019901310191019924
:100480009942F9D3016841F090010160CDF804C0B0
:100490000199914208D84CF2503100BF019A0132C3
:1004A0000192019A8A42F9D301684FF6FF7221F056
:1004B0000301016050F8081CCFF6F662114040F8C5
:1004C000081C50F8081C21F4802140F8081C002169
:1004D0000160026843F21002C2F2004240F8042CAC
:1004E000416001F0E7FA02B080BD000080B501F084
:1004F000D1FD80BD80B54BF25820C2F2000002F061
:1005000021FB80BD80B54BF25820C2F20000C079BB
:1005100088B100F081FE002000F062FE002000F0B3
:10052000C5FD40F6075000F04BFE4BF25820C2F2DA
:10053000000001F0AFFB4FF4802000F0FFF980BD18
:10054000FEE70000D0F82804806882780A807047AF
:10055000D0F82804406842880A807047D0F8280400
:10056000006802780A807047B0B50C4609780546E5
:1005700001F0030102290FD0E1B995F8CE0002285D
:1005800003D095F8CE00032814D16088012811D13A
:10059000002085F81A04B0BDA08895F8CE10032974
:1005A00008D1618821B940F08001C9B2802903D106
:1005B0000020B0BD0120B0BDC1B2284602F064F8F1
:1005C000D5F82C042146C268284690470020B0BDCB
:1005D00090F8CE1000F1CC02032909D002290FD1E6
:1005E0001178B1FA81F35B09002918BF012109E0F4
:1005F0001378B3FA83F14909002B18BF012301E0F6
:1006000001210023002B1EBFC0F8D8200122C0F812
:10061000E42008467047000070B50D46097804468E
:1006200001F00301012922D000293DD169884FF052
:10063000FF3000EB11220E2A4FF0010035D8DFE821
:1006400002F008261D343434343434343434343431
:100650002C0004F1E40620463146FFF77FFFE988CD
:10066000C4F8D800402904BF082030601CE0D4F84A
:100670002C042946C2682046904716E0C9B2EE29EC
:1006800012D804F1E402204600F050F90AE004F127
:10069000E4012046FFF75CFF04E004F1E40120469A
:1006A000FFF750FFC4F8D8000120D4F8E41099B146
:1006B000EA88002A08BF70BD91420AD2B4F8D4007B
:1006C000814204D3B1FBF0F202FB101028B10020EC
:1006D00070BD0020C4F8E42070BD012084F825041A
:1006E000002070BD024690F8CE0003281CBF0120F8
:1006F0007047888810F0FE0F4FF0010018BF704758
:10070000D2F82C14C2F8E40001310020C2F8D8104D
:10071000704700000A78898802F00302022A1AD082
:10072000012A46D0BABB90F8CE10022903D090F827
:10073000CE1003292FD190F8181490F81A244AF2F9
:10074000D0130029C2F2000318BF0121002A18BFEC
:100750008A1C1A701BE090F8CE20032A1BD1CAB263
:1007600000F1CC03C2EBC20203EB820C01F07F026A
:10077000C2EBC20203EB82020632090658BF0CF537
:10078000D57211784AF2D012C2F200021170002123
:10079000012262B102E00121002242B14AF2D012EC
:1007A000C2F20002C0F8D8200222C0F8E4200846B5
:1007B000704790F8CE2001F0FE0182F00302114351
:1007C000B1FA81F24FEA521218BF0121002AEED08D
:1007D000E4E700000120704710B58A885AB9044642
:1007E000C88840B9488800F07F0184F8CD1094F89B
:1007F000CE00032801D1012010BD204601F0CEFD1E
:1008000094F8CD00002814BF0220012084F8CE0007
:10081000002010BDB0B5044648884AF2D215C2F295
:10082000000510F0FE0F287001D00120B0BD94F833
:10083000CE1003290ED00229F7D1010611D0D4F829
:100840002C144A68C1B220469047287884F8CC001E
:10085000032012E0010606D094F8CC20C1B28A42EF
:100860000FD10020B0BDD4F82C148A68C1B2204644
:100870009047287884F8CC00022084F8CE0000202D
:10088000B0BDD4F82C04826820469047D4F82C04DC
:1008900029784268204684F8CC1090470020B0BDEB
:1008A0000020704780B50A7802F00302022A14D0B3
:1008B0008AB990F8CE20022A03D090F8CE20032ADD
:1008C00009D1498801291CBF002080BD012180F881
:1008D0001A14002080BD012080BD8A8890F8CE3097
:1008E000032B1CBF012080BD498821B942F0800143
:1008F000C9B2802901D1002080BDD1B201F0AAFE89
:10090000002080BD80B590F8CE20032A03D18A88CC
:1009100012F0FE0F01D0012080BDD0F82C24126906
:1009200002B19047002080BD00207047D0F8280415
:10093000C06850F8210001781180704743F61441D7
:10094000C4F2010108607047F0B5D0F820E0D0F89B
:1009500024C000230F27002505E000BF0135082D26
:1009600003F104030CD022FA05F6F607F6D007FAD5
:1009700003F62EEA060601FA03F446EA040EEDE752
:10098000082300240F2504E00133102B04F1040494
:100990000CD022FA03F6F607F6D005FA04F62CEA94
:1009A000060701FA04F647EA060CEDE7C0F820E076
:1009B000C0F824C0F0BD00002DE9F041D0F800E0FF
:1009C000D0F80CC000244FF00308002605E000BF5B
:1009D0000136102E04F1020412D023FA06F7FF07A5
:1009E000F6D008FA04F72EEA070E01FA04F54EEAEB
:1009F000050E2CEA070702FA04F547EA050CE7E7BB
:100A0000C0F800E0C0F80CC0BDE8F081B0B5012925
:100A1000416814BF994319434160D0F808C00021D0
:100A20004FF0030E002404E00134102C01F1020108
:100A30000CD023FA04F5ED07F6D00EFA01F52CEAF6
:100A4000050C02FA01F54CEA050CEDE7C0F808C008
:100A5000B0BD000010B54AF2D414C2F20004206008
:100A6000084600F00BF800BF20680028FCD140F2D7
:100A70000040C4F2000001F027F810BD70B584B04A
:100A80000546022000F01CFB49F68171C1F25E614F
:100A9000A0FB01014FF0FF3040F26A1640F2004423
:100AA00000EBD140C2F20006C4F2000430802046C0
:100AB00001F00AF82046012101F068F842F6DF60F3
:100AC000022D08BF0B20029030886946ADF8000067
:100AD0000020CDF80200ADF806008DF80C0020468D
:100AE00000F0FEFF2046012101F05AF8204600F0F8
:100AF000E5FF2046012101F04FF8204600F0EAFF13
:100B000004B070BD10B5002A08BF10BD02394FF007
:100B1000370C4FF0000E00BF0CEB1074B0F1204FFB
:100B20004FEA107338BF03F1300401F8024F00019F
:100B3000013A81F801E0EFD110BD000001F0EEF9BB
:100B400001F046FA01F096FA4BF2582040F25802B2
:100B500040F22803C2F20000C2F20002C2F2000317
:100B6000012101F007FE01F011FA00BFFEE70000CD
:100B700070B5D0F83054044641F21400285C41F2BC
:100B8000020105EB010680B12046812101F062FDE2
:100B90003078022818BF70BD41F208002A1820469C
:100BA00001211F2301F0E8FC70BDD6F80E000028DB
:100BB000EAD030780028E7D12046012101F04AFD33
:100BC000E2E7000070B5D0F83054044641F201006D
:100BD0002E1841F20C00285841F22C01685041F2C5
:100BE0001000285841F230016850204602F050F8B9
:100BF0001F280ED1D6F8070045F25531C4F2423114
:100C0000884206D1317D012903D8707D0138102832
:100C10000BD3317D20460522202300F0C3FD0220A6
:100C200070702046FFF7A4FF70BD41F217002A182C
:100C3000204600F089FBB0F1FF3FF2DD307801384B
:100C4000032838BF70BDD6F8032020461AB12946C4
:100C500000F084F870BD002100F01EF870BD0000A7
:100C600010B5D0F8303441F2020C13F80C20022AEF
:100C700007D1812103EB0C0401F0ECFC0020207073
:100C800010BD49B2B1F1FF3F05DC012A08BF10BD1C
:100C9000012100F001F810BDB0B5D0F83054044681
:100CA00041F2280045F255332A18C5F242332B5041
:100CB000117341F2010000212954204681210D23A6
:100CC00001F074FC41F208002A18204601211F237C
:100CD00001F052FCB0BD000010B50446D0F830045D
:100CE00041F20101425CD31E022B04D220460021B6
:100CF000FFF7D2FF10BD022AFCD10144097D41F269
:100D000017020244204600F01FFBB0F1FF3FC8BFAE
:100D100010BD20460121FFF7BFFF10BD10B50446EE
:100D2000D0F8300441F20101425C012A04D09AB9A2
:100D30002046FFF747FF10BD0144097D41F217022D
:100D40000244204600F000FBB0F1FF3FC8BF10BDD9
:100D500020460121FFF7A0FF10BD0000B0B58E4670
:100D6000D0F8301441F2010C134601EB0C02D2F81A
:100D70000F40D2F82F509C4238BF2346EC1AC2F8DD
:100D80002F40002482F83340042201F80C208121F6
:100D9000724601F00BFCB0BDD0F8300441F2010105
:100DA0000022425470470000B0B5D0F830540446D9
:100DB00041F201000021295240F26C10C2F2000001
:100DC00000680168002088472046012101F076FC78
:100DD0002046812101F072FC41F208002A182046C9
:100DE00001211F2301F0C8FBB0BD000080B5D0F881
:100DF000301441F201024FF480738B5241F2080229
:100E00000A4401211F2301F0B7FB80BD10B58121E9
:100E1000044601F099FB2046012101F095FB204694
:100E2000FFF7BAFF002010BD80B5FFF755FF002087
:100E300080BD0000B0B54AF2D815C2F200050446E4
:100E400028464FF48451FFF71FFAC4F8305442F695
:100E5000B665C0F6000505F11201204601F0C0FBA1
:100E600005F11901204601F0BBFB2046FFF79CFF6E
:100E70000020B0BD80B5FFF751FF002080BD00000D
:100E800010B54A780446012A20D0FF2A24D0FE2A31
:100E900026D1488820BBC888012821D191F90000BB
:100EA000B0F1FF3F1CDC40F26C10C2F200000068A1
:100EB000406980474BF2A461C2F200010870012032
:100EC000C4F8E4000020C4F8D81010BD0979204609
:100ED000FFF7C6FE002010BD488808B9C88808B1D1
:100EE000022010BD91F900000028F9D42046FFF738
:100EF0007DFF002010BD000070B515464EF60C5267
:100F0000CEF2000213680E4603F4E061B1F5E06F23
:100F1000044601D1042024E0106800F4E060B0F53C
:100F2000C06F01D103201CE0106800F4E060B0F550
:100F3000A06F01D1022014E0106800F4E060B0F569
:100F4000806F01D101200CE0106800F4E060B0F582
:100F5000407F01D1002004E04FF4A06000F01EF8B3
:100F6000022006FA00F1C0F104000F2222FA00F07C
:100F7000284008434EF20011CEF20001000144EA7D
:100F8000010282F8000304F01F00012202FA00F0BF
:100F90001C2202EAD402505070BD000040F0806074
:100FA0004EF60C5140F0FD70CEF200010860704723
:100FB000B0B547F2000CC4F2000CDCF800E04FF2D0
:100FC000FC33CFF6F37303EA0E03CCF80030DCF801
:100FD0000030B1F5402F43EA0003CCF800300DD1CA
:100FE000DCF8001040F20043C0F20C03002808BFF8
:100FF00003F5806341EA0300CCF800004EF21000D4
:10100000CEF20000D0F8001D4BF2946C41F00401C8
:10101000C0F8001D0168C2F2000CCCF80010D0F836
:10102000F0104BF2986EC2F2000ECEF80010D0F81D
:10103000F4304BF29C61C2F200010B60D0F8F84032
:101040004BF2A063C2F200031C6004680425C0F2E6
:1010500001052C4004604FF63104CFF67F74C0F8D0
:1010600070414FF6FF04CBF6FF74C0F874416FF483
:101070008054C0F87841002A0FBF30BF40BF20BF66
:1010800020BFDCF800200260DEF80020C0F8F0206D
:101090000968C0F8F4101968C0F8F810D0F8001DFD
:1010A00021F00401C0F8001DB0BD000043F6C001EE
:1010B000C4F202010A6822F001021043086070477E
:1010C00010B543F60402C4F2020253680146C3F3AA
:1010D000810342F20040022BC0F2F40006D0012B43
:1010E0001FD147F64000C0F27D101AE0D2F800C0D0
:1010F00013680CF03F0CC3F3881E13681468C3F325
:101100000143640247F64004C0F27D1458BF044610
:10111000B4FBFCF4022000EB430004FB0EF3B3FB32
:10112000F0F05368D2F804C0526803290DD8C3F315
:1011300003130EA4E35C20FA03F30FF2400EDFE882
:1011400001F01302060D184610BD002010BDCCF3AF
:1011500082201EF8000023FA00F010BDC2F34230D6
:101160001EF8000023FA00F010BD00BF00000000D0
:101170000000000001020304060708090000000047
:101180000102030443F600028109C4F202028958F5
:1011900000F01F0021FA00F000F00100704700008D
:1011A00043F6000300F01F018009C4F202034FF070
:1011B000010CC2580CFA01F11143C15070470000F4
:1011C00043F6000300F01F018009C4F202034FF050
:1011D000010CC2580CFA01F11143C15070470000D4
:1011E00043F6C001C4F202010A6822F00202104371
:1011F0000860704743F60801C4F202010A6822F051
:10120000030210430860704743F60800C4F202006E
:10121000006800F00C00704780B51020FFF7C0FF99
:101220001120FFF7AFFF0028FAD01820FFF7B8FF12
:101230001920FFF7A7FF0028FAD00220FFF7DAFFF6
:10124000FFF7E2FF0828FBD180BD0000D0F8300492
:1012500041F20401002242507047000080B5D0F8EE
:1012600030C41A440CEB810C4FF482515CF801102D
:101270008A4207D900210522212300F093FAFF209A
:1012800040B280BD002040B280BD00005378D0F84D
:101290003004DB0710D140F26C13C2F200031B686C
:1012A00003EB8101CB69117993F804C00CF10502BD
:1012B0008A4238BF114604E042F6F863C0F60003E4
:1012C000602141F204020029815008BF70475A1E74
:1012D000013800BF535C43540139FBD17047000013
:1012E000D0F8300441F2040100224250704700005F
:1012F000D0F8300441F2040100224250704700004F
:10130000D0F8300441F204010822425042F6E8626B
:101310000721C0F6000200BF535C435401394B1C47
:10132000FAD17047D0F8300441F20401082242504B
:1013300042F6F0620721C0F6000200BF535C43543E
:1013400001394B1CFAD1704780B5137884465A2B6B
:1013500000F2A1800020DFE813F05B009E009E00F9
:101360006000A5009E009E009E009E009E009E00C4
:101370009E009E009E009E009E009E009E006500B6
:101380009E009E0069009E009E009E009E006D00D3
:1013900071009E009E0075009E009E009E009E00B3
:1013A00079009E007D009E009E0081009E008600C8
:1013B0009E009E009E009E008B009E009E009E0050
:1013C0009E009E009E009E009E009E009E009E002D
:1013D0009E009E009E009E009E009E009E009E001D
:1013E00090009E009E009E009E009E009E009E001B
:1013F0009E009E009E009E009E009E009E009E00FD
:101400009E009E0094009E009E009E009E009800FC
:10141000604600F0EDF940B280BD6046114600F034
:101420008BF935E06046FFF731FF31E06046FFF7AA
:101430005FFF2DE06046FFF775FF29E0604600F092
:10144000CDF925E06046FFF701FF21E0604600F09E
:101450004DF91DE0604600F01DF919E0604600F00E
:10146000BDF840B280BD604600F020FA40B280BDB9
:10147000604600F0FFF940B280BD604600F0DEF942
:1014800006E06046FFF72CFF02E06046FFF738FFFA
:10149000002040B280BD604600210522202300F0DC
:1014A00081F9FF2040B280BDF0B581B0D0F8306442
:1014B000054641F248003458084640F26C11C2F229
:1014C00000010968B4F5805F28BF4FF48054CF68ED
:1014D00006EB800141F23C02895841F24402B4FB20
:1014E000F1F1B2588BB23146B847B0F1FF3F1DDD84
:1014F00041F201003718284681213246234601F087
:1015000055F8D7F82F00D7F84310D7F847202144D3
:10151000121BA0EB0400C7F84310C7F84720C7F818
:101520002F0004BF03203870002006E02846002169
:101530000422112300F036F9FF2040B201B0F0BDC3
:10154000F0B581B0D0F83054074641F248002E582B
:10155000084640F26C11C2F200010968B6F5805FDE
:1015600028BF4FF480560C6905EB800141F23C0224
:10157000895841F24402B6FBF1F1AA588BB22946D0
:10158000A047B0F1FF3F18DD41F230002844016868
:10159000D0E90523891B32449B1BC0E90523016068
:1015A00013D0384601212A46B3F5805F28BF4FF497
:1015B000805300F0E1FF00240CE0384600210422B3
:1015C000032300F0EFF8FF2404E038460021002454
:1015D000FFF762FB60B201B0F0BD00002DE9F04101
:1015E000D0F83064044641F201009046325C0D466A
:1015F00006EB000752B14FF48050C7F803002046B5
:101600002946FFF751FF40B2BDE8F08197F913007A
:10161000002804D420460021052220230CE040F2BB
:101620006C10C2F20000006841682846884748B143
:101630002046002102223A2300F0B4F8FF2040B2F5
:10164000BDE8F081D8F80200294602BAC7F8432065
:10165000B8F80700000403BA2046C7F84730FFF780
:10166000FDFD0028EAD40220387006EB850041F227
:101670003C014258D7F84330D7F847605A43C7F87F
:1016800043204058D7F80F1070438142C7F84700F5
:10169000B1D0BFE780B540F26C12C2F2000212680E
:1016A000D0F8300402EB810CDCF8243000EB810E22
:1016B0004FF482514EF80130DCF820105A1E41F2EE
:1016C0003C034EF80310130E0370130C4370130AFF
:1016D000C2700A0E02710A0C42710A0A8271C1714B
:1016E00041F2040108228370425080BD40F26C1226
:1016F000C2F200021268D0F8300402EB8101D1E995
:101700000821002303604360836001390823C3700C
:101710000B0E03710B0C43710B0AC1710221017294
:10172000110C4172110A8172C27241F204010C2241
:10173000837142507047000010B5D0F83004002388
:10174000036043600382C36083607023037041F2CF
:10175000380341F23902C35C825C41F2040C8444D8
:1017600093424FF00C02C27114D003EB430200EB22
:10177000820241F2500E12F80E4072448470547A84
:10178000127A04734273581CC2B2043A18BF02465C
:101790008CF834200879122828BF1220CCF80000D9
:1017A00010BD000010B5D0F8300441F2390C10F82B
:1017B0000C3041F2500E03EB430100EB810101EBD1
:1017C0000E0401F80E2000212172591CCAB2043AFD
:1017D00018BF0A4600F80C2010BD0000D0F83004F5
:1017E00041F20401002342184350012090647047E5
:1017F000B0B5D0F83054044641F21000285820B15A
:1018000020460021052220230CE040F26C10C2F299
:101810000000006842680846904740B12046002119
:1018200002223A23FFF7BEFFFF2040B2B0BD41F2D3
:10183000040029180020086040B2B0BD40F26C12CC
:10184000C2F20002126801EB81019269D0F8300403
:1018500002EB810111F8012F41F2040302F1020CA5
:1018600040F803C0013000BF8B5C8354013A931CE5
:10187000FAD1704710B5527892070FD4D0F83024BF
:1018800041F20403D418226CB4F84430FFF7E6FCAC
:10189000002808D40020206040B210BD002105229D
:1018A0002423FFF77FFFFF2040B210BD2DE9F04356
:1018B00081B0D0F83054044641F201002B5C0E4652
:1018C0003BB120463146FFF73BFE40B201B0BDE8D8
:1018D000F08305EB000898F91300B0F1FF3F12DD2B
:1018E00040F26C19C2F20009D9F8000017464168AD
:1018F0003046884778B12046002102223A23FFF77C
:1019000051FFFF20E1E72046002105222023FFF7B9
:1019100049FFFF20D9E7D9F80000816830468847A1
:1019200038B12046002102222723FFF73BFFFF208A
:10193000CBE7D7F80200314602BAC8F84320B7F81F
:101940000700000403BA2046C8F84730FFF786FCBA
:10195000002823D405EB860041F23C014258D8F818
:101960004330D8F847705A43C8F843204058D8F855
:101970000F1007FB00F39942C8F8473010D101203F
:1019800088F80000204601212A46B3F5805F28BF71
:101990004FF4805300F0F0FD002096E7FF2094E71D
:1019A0002046002105222023FFF7FCFEFF208CE7C4
:1019B000B0B504460078062809D143F60050C4F2B9
:1019C00002000068002818BFC4F80200B0BD47F646
:1019D0001021C1F6FF7108688A68801808BFB0BD81
:1019E0004D68A11C0822FFF78DF804F1120128466A
:1019F0000422FFF787F8B0BD43F60800C4F20200E6
:101A000050F8081C41F4803140F8081C4FF6FE7174
:101A100050F8083C4A1E8A4203D213F400311146A2
:101A2000F6D050F8081C890301D400BFFEE7826B92
:101A300047F2000142F08052C4F2000182630A685A
:101A400042F440420A6002680260026842F40042C6
:101A50000260026842F4A052026045F21942C0F2EC
:101A6000407240F8042C50F8082C42F0807240F884
:101A7000082C00BF50F8082C9201FBD50A6842F4EC
:101A800080320A604A68D203FCD50A6842F4003208
:101A90000A6000BF4A689203FCD5016821F0030187
:101AA0000160016841F00201016000BF016809079F
:101AB000FCD5704780B5FFF79FFF80BD016841F0FE
:101AC0008001016070470000016821F001010160A0
:101AD00070470000016841F001010160704700009B
:101AE00080B540F6FF330A88C4F200039842826250
:101AF0000FDCB0F1804F1DD040F20042C4F2000272
:101B0000904217D040F60002C4F20002904211D079
:101B10001CE040F60042C4F2000290420AD040F2BB
:101B20000042C4F20102904204D00022C4F2010239
:101B300090420BD1026822F0700202604A8803686A
:101B40001A4302608A8803681A43026041F2000C5B
:101B5000C4F2000C8A6820F480636345C26210D02E
:101B6000026822F440720260B1F806E002684EEAB0
:101B7000020E0CF57042C0F800E0934204BF097BEE
:101B80000163416941F00101416180BDC26822EAFF
:101B90000101C16070470000C2681143C160704715
:101BA000C943016170470000C26800690A400840EB
:101BB00018BF0120002A18BF012210407047000002
:101BC000F0B581B00C46054600200221012A28719B
:101BD00069702A700BD0002A58D10020C4F204008A
:101BE000E86040F20C6068800220687108E04FF005
:101BF000A042EA604FF481626A80A5F80510E8719E
:101C0000E86800F5006100F5806200F5886600F57F
:101C1000606784E8070004F10C006C21FEF734FBD8
:101C200004F17C003C21A667FEF72EFBC4F8B870D7
:101C3000E87898B1EA68E87804F1200102F53062AA
:101C4000012898BF012000BFA2F5007341F8042FBE
:101C5000013802F1200241F8183CF5D1A87890B182
:101C6000EB68A878211F03F5A06203F580530128D3
:101C700098BF01200A64C1F8803004312032013855
:101C800003F58053F6D1002001B0F0BD012001B072
:101C9000F0BD0000C17951B141698968C90708BF29
:101CA0007047D0F8C800016821F003010160704757
:101CB00070B5049C0D4601F47F412068B1F5807F2A
:101CC000C5F3074617D1816B21F4803181631EB1C2
:101CD000816B41F480118163C1684FF6BF72CFF60A
:101CE000DF721140C160C16821F48011C1602046DB
:101CF00000F028F817E0C16841F04001C1602046BB
:101D000000F020F82068816B41F450218163816BE1
:101D100041F4001181631EB1816B41F48011816334
:101D2000142000F03FF9E8B2012808D1206881684A
:101D300021F01E018160816841F02A01816000204C
:101D400070BD000080B50068016941F001010161CA
:101D50000169C907FCD1032000F01AFB80BD000017
:101D6000416B1822C6F208020A610279012A18BFE3
:101D7000704700F21C404861086840F0802008600D
:101D8000704700000068C26822F0C042C26029B1FA
:101D9000012918BF70474FF0005101E04FF080411A
:101DA000C2681143C16070474069416821F0020177
:101DB000416070474069416841F0020141607047ED
:101DC0004069026822F4FE620260026842EA011180
:101DD000016070472DE9F04381B08146D0F8C8001A
:101DE0004FF00008C0F80080D9F8140009F1100580
:101DF000016821F4C051016001680160016821F0AF
:101E00000301016099F80010012912D1016841F025
:101E100003010160284600F003F9002729A600BF4E
:101E200036F81720F9B2284600F0FEF80137042FE3
:101E3000F6D12846102100F089FA284600F0D4F89F
:101E4000D9F814004FF0FF31C0F81080C0F81480AA
:101E50008161C0F81C8099F8031039B399F8031018
:101E600009F11C02FF230026012998BF012106E089
:101E7000013902F104023D603E61BB6016D0176873
:101E800000253C68B4F1FF3F4FF0000402DC3C68E1
:101E900044F090443C603D61BB6097693C68B4F19C
:101EA000FF3FE5DC3D6845F09045E1E7016941F021
:101EB00010010161484600F009F8002001B0BDE8BA
:101EC000F08300BF400080000000000001694FF077
:101ED000FF324A606FF080424A6140F60002C8F269
:101EE00000028A61007918B9886940F010008861A1
:101EF000886943F20802C0F23C02024300208A6172
:101F0000704700000068816821F00101816070471E
:101F10000068816841F001018160704710B541F2AD
:101F20000E10FFF74DF94FF44060FFF749F9002418
:101F3000C4F202042046022100224FF4C053FEF7EF
:101F40003BFD2046002103224FF4C053FEF75EFD07
:101F500020460A214FF4C052FEF7F6FC10BD0000E7
:101F600040698169C069084000F03F007047000087
:101F7000426900EB81001369526BC06922FA01F1DA
:101F8000C901C9B2806819430840704780B54FF451
:101F9000A060FFF703F8432002210022FEF7ACFF08
:101FA00080BD000080B50121FEF754FD80BD00001A
:101FB00040698169C0690840C0F30540704700006E
:101FC00000EB8101496B89684069406908407047AE
:101FD00080B50020FFF704F90020FFF767F840F60E
:101FE0000750FFF7EDF880BD80B500681021016152
:101FF0000169C906FCD4032000F0CAF9002080BDA5
:1020000003320023B3EB920F08D0C36F9208081F6E
:102010001968013A40F8041FFAD1011D08467047BB
:10202000006880214162704710B5D0F800C0DCF82C
:102030002400D1B1DCF82830B1F1010E00EB1343DC
:102040000CD00021002000BF0CEB8101D1F804412D
:102050000130C1B28E4503EB1443F5D843EA024088
:102060000CEB8E01C1F8040110BD40EA0240CCF82F
:10207000280010BD80B54FF4A060FEF78FFF1D2033
:1020800001210022FEF738FF41F20100FFF798F826
:1020900080BD000010B540F20044C4F200042046A8
:1020A0000121FFF781FD002808BF10BD2046012156
:1020B000FFF776FD4AF2D410C2F20000016819B1B0
:1020C00001680139016010BD2046FFF7FDFC10BD1D
:1020D00080B581B00022009291F90020B2F1FF3F5B
:1020E00002F00F0E08DD00EB8E02536B0EF1100CA8
:1020F000012202FA0CF205E000EB8E03DB690122FB
:1021000002FA0EF200921A68120427D4D3F800C023
:102110004FF60002CFF6334202EA0C02BEF1000F86
:102120001A6002D0B1F804C009E04269926802F076
:10213000060C42F69E52C0F6000212F80CC01A6855
:1021400042EA0C021A6049781A6842EA8E5242EA60
:10215000814141F0805141F4004119600099426988
:10216000D06901430020D16101B080BD91F9002008
:10217000B2F1FF3F02F00F0200EB8200CCBF406BD8
:10218000C069026822F400120260497801F0FE0181
:10219000022903D1016841F080510160002070479D
:1021A00091F90010B1F1FF3F01F00F0100EB810246
:1021B00002DD526B103100E0D269136823F4004352
:1021C000136042690120D369884023EA000100209E
:1021D000D1617047B0B582B00A7800F1100E02F0FC
:1021E0000F020EEB8203DC682368019323690093DE
:1021F000009B03F060430093CB6853B16AB1B1F820
:1022000004C06344013BB3FBFCFC009B43EACC43AA
:102210000DE0009B43F4002316E0B1F804C06345D1
:1022200038BF9C46C1F80CC0009B43F400230093C8
:10223000D1F80CC0009B43EA0C0300934B78012BB0
:1022400003D1009B43F000530093009B236191F85E
:1022500001C0BCF1010F09D143699D68019BED05E7
:1022600054BF43F0005343F0805301930379012B93
:1022700004BF8D696561019D45F004450195019D8F
:10228000256093B9BCF1010F07D1D1F808C08B8943
:102290007046614600F068F807E0C96829B14069F6
:1022A0000121436B914019434163002002B0B0BD4E
:1022B00010B50A7812F00F0200EB8202526BD2F8CE
:1022C00000C014698B8804F0604E0BD0CC684CB110
:1022D0001C44013CB4FBF3F44EEAC44E634343EAAE
:1022E0000E0303E043EA0E0343F400231361007975
:1022F000012804BF886950614878012806D1C87850
:1023000000280CBF4CF0805C4CF0005C4CF00441A9
:102310000020116010BD000091F90010B1F1FF3FE5
:1023200001F00F0100EB810001DD416B08E0C169A4
:102330000868B0F1FF3F03DC086840F080400860A7
:10234000086840F4001200200A60704780B58901D7
:1023500000682031016100BF01698906FCD40320B7
:1023600000F016F8002080BD03F1030C0023B3EB4E
:102370009C0F0AD000EB8200C06F4FEA9C03043927
:1023800051F8042F013B0260FAD100207047000091
:1023900080B50221FEF75EFB80BD000080B5FFF72F
:1023A0000FFD80BD80B590F8CE20032A03D18A8826
:1023B00012F0FE0F01D0012080BDD0F82C24D2688D
:1023C000904780BD80B5FFF7EFFC0320FFF7EAFDE3
:1023D00080BD000010B5D0F87C22D0F888320021F2
:1023E000044600F0C9F8D4F88802B4F87812042240
:1023F00088424FF0000088BF032284F8242410BDD7
:1024000010B5D0F8D820D0F8E4300021044600F010
:10241000CDF8D4F8E400B4F8D410022288424FF08A
:10242000000088BF012284F8242410BD10B50446A2
:10243000062084F82404204600210022002300F016
:102440009BF82046FFF78CFC002010BD10B5044619
:10245000052084F82404204600210022002300F0F7
:10246000A5F82046FFF77CFC002010BD80B5FFF7E3
:10247000A1FC0320FFF796FD80BD00002DE9F04F81
:1024800083B0C1EBC10200EB820C654635F8D42F56
:1024900000F110092F462C4657F8083F54F80C6FEE
:1024A00009EB810B9B1B5BF80C6F9342029088BF7A
:1024B0001346B269033392B2B2EB930F02D203B068
:1024C000BDE8F08F012088400CF1D806C0435FFAC8
:1024D00081FA019009E000BFDBF8000008F1030178
:1024E000806980B2B0EB910FE9D3206839688142EE
:1024F000E5D92A88A1EB0008904588BF904631684D
:102500001FFA88F348465246FFF72EFF30683968B5
:10251000404430602068404488422060DCD102980A
:102520004069416B019A11404163D5E710B58021A4
:10253000044600F08FF82046002100F08BF820467A
:10254000FFF70EFC10BD00004AB2B2F1FF3F06DDFE
:10255000C1EBC10100EB810101F51D7106E001F045
:102560007F01C1EBC10100EB8101D03180B5FFF7E4
:1025700017FE002080BD000080B501F07F01C1EB97
:10258000C10100EB8101C1F8803203794FF0000CEA
:10259000C1F87C22012BC1F884C208BFC1F88C228B
:1025A00001F51D71FFF784FE002080BD80B501F0AC
:1025B0007F01C1EBC10100EB8101C1F8DC3003797F
:1025C0004FF0000CC1F8D820012BC1F8E0C008BFC3
:1025D000C1F8E820D031FFF7FDFD002080BD0000EC
:1025E00010B58A78B1F804C04FFA82FEBEF1FF3F01
:1025F0000CDDC2EBC20200EB820393F8744203F5D8
:102600001D7204F07F0483F874420AE00EF07F022A
:10261000C2EBC20200EB820212F8D03F43F080030B
:10262000137013780EF00F0403F0F00323441370BB
:10263000C97842F6A45301F00301C0F6000353F831
:102640002110A2F804C051701146FFF741FD00208F
:1026500010BD00004AB2B2F1FF3F06DDC1EBC1017F
:1026600000EB810101F51D7106E001F07F01C1EB76
:10267000C10100EB8101D03180B501228A70FFF7E2
:102680004BFE002080BD00004AB2B2F1FF3F06DDE4
:10269000C1EBC10100EB810101F51D7106E001F004
:1026A0007F01C1EBC10100EB8101D03180B5002277
:1026B0008A70FFF75BFD002080BD000080B54AB244
:1026C000B2F1FF3F00F1100003DDFFF78DFC0020A9
:1026D00080BD01F07F01FFF739FE002080BD0000C2
:1026E000B0B5044659B194F8CE00032805D1D4F80A
:1026F0002C04C2690AB1204690470020B0BD94F86E
:102700002404022815D00128F7D1B4F8D400D4F855
:10271000E4102279091A012AC4F8E41004D1D4F88B
:10272000D8100844C4F8D8002046FFF769FE0020FE
:10273000B0BD94F8250450B12046002100220023AA
:102740000025FFF733FF002084F82554B0BD94F82E
:10275000CE00032805D1D4F82C04416909B12046E4
:1027600088470020C4F8E4002046FFF75FFE002001
:10277000B0BD000070B582B00446C0F82824D0680F
:10278000C4F82C34C0680E46FFF712F904F11005A6
:10279000204629463246FFF713FA2846FFF7B2FBD8
:1027A00094E80F000095FFF783FA2046FFF75EFEDE
:1027B00028460021FFF7E6FA2046FFF70BFB2846E4
:1027C000FFF7A6FB2046FFF7FDFD012084F8CE00B1
:1027D00002B070BDD0E90421D1F808C04B6823F4E1
:1027E00080734B604B6843F480734B60D1684FF447
:1027F000A05321F47051D1601CF006014FF002018A
:1028000008BF03214170D06808BF4FF4105318432C
:10281000D0604FF400505061704700002DE9F04740
:1028200082B00446FFF79CFB00283FD005464FF0DE
:1028300000084FF080094FF0010A002607E000BFB2
:10284000B8EB550F4FEA550506F101062ED0E80703
:10285000F6D0F7B220463946FFF78AFB019001987F
:10286000C0070DD101980006EAD520463146FFF792
:1028700005FE04EB8600C069C0F80890E0E700BFE1
:1028800004EB8600C0693946C0F808A02046FFF76F
:1028900027FF002EE6D120790128E3D194F8240403
:1028A0000528DFD12046FFF75BFADBE702B0BDE881
:1028B000F08700002DE9F04F83B08346FFF778FBE7
:1028C000002851D005460D274FF000084FF00809A9
:1028D0004FF0010A002408E0B8EB550F4FEA550508
:1028E00007F1010704F11C043ED0E807F4D0A7F17A
:1028F0000D00C6B258463146FFF762FB02900298BF
:10290000C0070BD102980007E6D5584600F0C4F97D
:102910005BF82700C0F80890DEE700BF5BF82700EF
:10292000C0F808A09BF8041001290BD100690190A0
:102930000BEB0400B0F87812019A6FF3DF42891AAA
:10294000C0F884125846314600F066F9002CD9D1FF
:102950009BF804000128D5D19BF824040628D1D186
:102960005846FFF7FDF9CDE703B0BDE8F08F000052
:1029700070B5416904464A68103022F001024A608D
:1029800000210025FFF7E2FCE07860B1E07800214B
:10299000FF2200BF04EB8103DE695B6B01318142E2
:1029A000B2609A60F6D360694FF0FF3181614FF0F9
:1029B0000111C1610921012641610661016821F40B
:1029C000FE6101602046FFF7CBF920694FF480518A
:1029D0004161402004F51D71A4F878022046C4F836
:1029E0007452C4F88A52C4F88652C4F88252C4F8A9
:1029F0007E52C4F87A52A4F88E52FFF769FB802009
:102A0000214621F8D00F4FF48000C4F8D2002046B0
:102A1000C4F8D650C4F8DA50C4F8DE50C4F8E25016
:102A2000C4F8E650A4F8EA50FFF752FB84F8CE60F1
:102A300070BD000070B582B000210191044654F8C9
:102A4000101F8A6922F010028A61096A01910199B6
:102A5000019D019A019B01F00F01C3F34343062B33
:102A6000C5F30A1517D0022B2ED16DB3C1EBC101EE
:102A700000EB8106D6F87C1220462A46FFF7C0FA02
:102A8000D6F87C02D6F884122844C6F87C0248198D
:102A9000C6F8840218E012F4C03F15D1082D01BF1A
:102AA000C1EBC10100EB810595F8741211F00F0123
:102AB0000AD100F21C4120460822FFF7A1FAD5F8FE
:102AC00084020830C5F884022068816941F0100151
:102AD000816102B070BD000010B582B00446C079BB
:102AE0008DF807006069806800F001008DF806002D
:102AF00094F8CE000338B0FA80F040098DF8050054
:102B000094F8CE0084F8CF00042084F8CE009DF81D
:102B1000070080B19DF8060068B19DF8050050B12E
:102B2000D4F8C8000022016841F0030101600120CF
:102B30000021FEF73DFA20694FF40061416102B0C7
:102B400010BD0000B0B5044600694169C90762D1F3
:102B50004169806910EA01055DD0280311D468033A
:102B600014D4280517D4B5F1FF3F1ADD280721D466
:102B7000E8062AD4E8042DD4A80430D4E8023DD5D0
:102B800032E02046FFF796FE6803EAD52046FFF7BD
:102B900045FE2805E7D52046FFF79EFFB5F1FF3F2C
:102BA000E4DC032084F8CE0020694FF0004141614D
:102BB0002807DDD5D4F82C04416A09B1204688479E
:102BC000206908214161E806D4D52046FFF732FF8D
:102BD000E804D1D52046FFF7CBFEA804CED5204689
:102BE000FFF7F8FDE80209D5D4F82C04816A09B191
:102BF0002046884720694FF480114161A80258BFE0
:102C0000B0BDD4F82C04C16A09B1204688472069B8
:102C10004FF400114161B0BD10B5044659B1D4F86C
:102C20002C04026A2AB194F8CE00032801D1204670
:102C30009047002010BD94F82404042815D00328E0
:102C4000F7D1B4F87802D4F888122279091A012A47
:102C5000C4F8881204D1D4F87C120844C4F87C0269
:102C60002046FFF7B7FB002010BD94F8CE000328E4
:102C700005D1D4F82C04816909B120468847002089
:102C8000C4F888022046FFF7E1FB002010BD0000D9
:102C9000B0F8A0027047000010B582B00446D0F82A
:102CA0002004D4F81C14019001F060004028009129
:102CB00008D020280CD0B8B96946204600F02CF87E
:102CC00058B914E06946204600F048F828B90EE0EB
:102CD00069462046FFF766FB48B169462046FFF784
:102CE00025FC002002B010BD01200028F5D1BDF860
:102CF000060040B19DF90000B0F1FF3F07DD20461E
:102D0000FFF768FBEDE72046FFF7A0FBE9E7204669
:102D1000FFF776FBE5E7000080B54A7802A353F899
:102D20002220904780BD00BF1507000869050008F4
:102D3000D5070008A5080008D5070008D90700082E
:102D400019060008A1080008D105000815080008A8
:102D5000E506000805090008290900080020704759
:102D6000F1EE100A4FF6FF71C0F2C03120EA010007
:102D700040F04070E1EE100A7047008000011F0033
:102D800000004744333220202020496E7465726E63
:102D9000616C207372616D202020312E3030000074
:102DA000030000000000000001000000020000001D
:102DB000030000001603470069006700610044003B
:102DC00065007600690063006500000000000000F7
:102DD00000000000000000000000000000000000F3
:102DE00000000000000000000000000000000000E3
:102DF00000000000000000000000000000000000D3
:102E000000000000000000000000000000000000C2
:102E100000000000000000000000000000000000B2
:102E200000000000000000000000000000000000A2
:102E30000000000000000000000000000000000092
:102E40000000000000000000000000000000000082
:102E50000000000000000000000000000000000072
:102E60000000000000000000000000000000000062
:102E70000000000000000000000000000000000052
:102E80000000000000000000000000000000000042
:102E90000000000000000000000000000000000032
:102EA0000000000000000000000000000000000022
:102EB00000000000000009022000010100C03209EA
:102EC00004000002080650000705810240000007C8
:102ED0000501024000001201000200000040E92844
:102EE0008F02000101020301000600000000000043
:102EF0000000000000000000000000005C80831A59
:102F00000347004400330032002D005500530042B7
:102F1000005F004D0053004300000000000000006F
:102F200000000000000000000000000000000000A1
:102F30000000000000000000000000000000000091
:102F40000000000000000000000000000000000081
:102F50000000000000000000000000000000000071
:102F60000000000000000000000000000000000061
:102F70000000000000000000000000000000000051
:102F80000000000000000000000000000000000041
:102F90000000000000000000000000000000000031
:102FA0000000000000000000000000000000000021
:102FB0000000000000000000000000000000000011
:102FC0000000000000000000000000000000000001
:102FD00000000000000000000000000000000000F1
:102FE00000000000000000000000000000000000E1
:102FF00000000000000000000000000000000000D1
:10300000000004030904000002300008B42D000889
:10301000FF2E000868000020383000080000002063
:1030200070010000C4010008883000087001002011
:1030300038BD0000000200082FED030008F1030076
:1030400008F5030008F9035A0811040008E9030011
:1030500008377A2D000800028250DD350E00080D79
:103060000E0008810E0008D9290E0008750E000810
:1030700059D62E0008B62E000807FF083000081A9F
:0830800003315205122000008B
:040000050800018965
:00000001FF
