:020000040800F2
:10000000100400209D010008250200081D020008C0
:1000100021020008E5010008250300080000000097
:100020000000000000000000000000003D02000889
:10003000E901000800000000390200086D02000814
:10004000B7010008B7010008B7010008B7010008B0
:10005000B7010008B7010008ED010008B70100086A
:10006000B7010008B701000805020008B701000841
:10007000B7010008B7010008B7010008B701000880
:10008000B7010008B7010008B7010008B701000870
:10009000B7010008B7010008B7010008B701000860
:1000A000B7010008B7010008B7010008B701000850
:1000B000B7010008B7010008B7010008B701000840
:1000C000B7010008B7010008B7010008B701000830
:1000D000B7010008B7010008B7010008B701000820
:1000E000B7010008B7010008B7010008B701000810
:1000F000B7010008B7010008B7010008B701000800
:10010000B7010008B7010008B7010008B7010008EF
:10011000B7010008B7010008B7010008B7010008DF
:10012000B7010008B7010008B7010008B7010008CF
:10013000B7010008B7010008B7010008B7010008BF
:10014000B7010008B7010008B7010008B7010008AF
:10015000B7010008B7010008B7010008B70100089F
:10016000B7010008B7010008B7010008B70100088F
:10017000B7010008B7010008B7010008000000003F
:10018000B7010008B7010008DFF80CD000F018F83C
:100190000048004751060008100400200648804728
:1001A00006480047FEE7FEE7FEE7FEE7FEE7FEE75C
:1001B000FEE7FEE7FEE7FEE775020008890100089A
:1001C000064C074D06E0E06840F0010394E80700A4
:1001D00098471034AC42F6D3FFF7DAFF200E000840
:1001E000400E0008FEE700007047000080B50120C7
:1001F00000F018F910B1002000F064F9012000F0BF
:100200000BF980BD80B5102000F00CF910B1002072
:1002100000F058F9102000F0FFF880BDFEE7000064
:10022000FEE70000704700004EF623510001CEF2B9
:100230000001087070470000704700007047000020
:10024000B0B501380024B4EB106F1CBF0120B0BD65
:100250004EF21005CEF2000568600F20FFF7E4FFB4
:100260000720AC6028602046B0BD000080B500F0DB
:1002700065F880BD80B582B04EF68851CEF200019F
:100280000A6843F6080042F47002C4F202000A60F1
:1002900050F8081C41F0010140F8081C50F8081CF7
:1002A0008907FBD5016841F08001016000210191BF
:1002B000019A4F2A06D800BF019A01320192019A91
:1002C000502AF9D3026842F090020260019101992C
:1002D0004F2905D801990131019101995029F9D38C
:1002E00001684FF6FF7221F00301016050F8081C0D
:1002F000CFF6F662114040F8081C50F8081C21F4B3
:10030000802140F8081C00210160026843F21002BD
:10031000C2F2004240F8042C416000F0D9FA02B069
:1003200080BD0000FEE7000040F20801C2F20001BB
:10033000086000BF08680028FCD1704740F2080040
:10034000C2F200000168002908BF70470168013946
:100350000160704780B54FF4406000F0E9F90A2071
:100360000121002200F088F910200021012200F074
:1003700005F8102000F050F880BD000043F6084C4E
:10038000C4F2010C5CF8083C012923EA00034CF894
:10039000083C5CF8043C23EA00034CF8043CDCF81D
:1003A000003023EA0003CCF80030DCF8043023EA04
:1003B0000003CCF8043019D021B95CF8081C0143C3
:1003C0004CF8081C022A18D0012A6FEA000118D044
:1003D000002A18BF7047DCF800201043CCF800005A
:1003E000DCF804000840CCF8040070475CF8041CFA
:1003F00001434CF8041C022AE6D1DCF8001001434A
:1004000002E0DCF800201140CCF80010DCF8041009
:100410000843CCF80400704743F61441C4F20101CC
:100420000860704743F60041C4F201014A69096857
:10043000024000EA010018BF0122002818BF012075
:100440001040704710B54FF440600C4600F070F952
:1004500041F20E1000F06CF90020C4F202000021FD
:100460000022012300F088F8012C18BF10BD0620DF
:100470000221002200F000F90020002100F088F99C
:10048000012000210122FFF779FF0120FFF7C4FFBF
:1004900010BD0000B0B540F6024000F049F940F64A
:1004A0000004C4F20204204601210022402340251A
:1004B00000F062F8204600210222402300F086F876
:1004C000A562B0BD40F62C00C4F2020040210160DC
:1004D00070470000F0B5D0F820E0D0F824C0002329
:1004E0000F27002505E000BF0135082D03F10403A7
:1004F0000CD022FA05F6F607F6D007FA03F62EEA34
:10050000060601FA03F446EA040EEDE70823002488
:100510000F2504E00133102B04F104040CD022FA5F
:1005200003F6F607F6D005FA04F62CEA060701FAF8
:1005300004F647EA060CEDE7C0F820E0C0F824C056
:10054000F0BD000010B54FF4406000F0F1F8002459
:10055000C4F20204204602210122402300F00CF8DC
:10056000204600210222402300F030F820460221DC
:100570004022FFF7AFFF10BD2DE9F041D0F800E0B9
:10058000D0F80CC000244FF00308002605E000BF9F
:100590000136102E04F1020412D023FA06F7FF07E9
:1005A000F6D008FA04F72EEA070E01FA04F54EEA2F
:1005B000050E2CEA070702FA04F547EA050CE7E7FF
:1005C000C0F800E0C0F80CC0BDE8F081B0B501296A
:1005D000416814BF994319434160D0F808C0002115
:1005E0004FF0030E002404E00134102C01F102014D
:1005F0000CD023FA04F5ED07F6D00EFA01F52CEA3B
:10060000050C02FA01F54CEA050CEDE7C0F808C04C
:10061000B0BD000080B50020FFF73CFF80BD0000AA
:1006200010B50128B8BF10BD044600BF4FF4FA70E2
:10063000FFF77AFE0020FFF745FF4FF4FA70FFF74F
:1006400073FE0020FFF73EFF013CEFD110BD00001C
:1006500000200121FFF7F6FEFFF7DCFF00F03CF978
:100660000120FFF7DDFFFFF775FEFFF76BFF00F0DE
:100670008BFA00BFFEE7000070B515464EF60C522F
:10068000CEF2000213680E4603F4E061B1F5E06FAC
:10069000044601D1042024E0106800F4E060B0F5C5
:1006A000C06F01D103201CE0106800F4E060B0F5D9
:1006B000A06F01D1022014E0106800F4E060B0F5F2
:1006C000806F01D101200CE0106800F4E060B0F50B
:1006D000407F01D1002004E04FF4A06000F01EF83C
:1006E000022006FA00F1C0F104000F2222FA00F005
:1006F000284008434EF20011CEF20001000144EA06
:10070000010282F8000304F01F00012202FA00F047
:100710001C2202EAD402505070BD000040F08060FC
:100720004EF60C5140F0FD70CEF2000108607047AB
:1007300043F6000300F01F018009C4F202034FF0EA
:10074000010CC2580CFA01F11143C150704700006E
:1007500043F6000300F01F018009C4F202034FF0CA
:10076000010CC2580CFA01F122EA0101C150704794
:1007700043F6000300F01F018009C4F202034FF0AA
:10078000010CC2580CFA01F11143C150704700002E
:100790008A08032A88BF70470C2303EA81010F23CC
:1007A0008B4000FA01FC01EB8200D943DFE802F044
:1007B00002260E1A43F60800C4F201000268114036
:1007C0000160016841EA0C010160704743F60800CE
:1007D000C4F20100826811408160816841EA0C0125
:1007E0008160704743F60800C4F20100C2681140FE
:1007F000C160C16841EA0C01C160704743F608005E
:10080000C4F20100426811404160416841EA0C01B4
:100810004160704743F60800C4F2020050F8081C1B
:1008200041F4803140F8081C4FF6FE7150F8083C46
:100830004A1E8A4203D213F400311146F6D050F812
:10084000081C890301D400BFFEE7826B47F2000158
:1008500042F08052C4F2000182630A6842F44042CE
:100860000A6002680260026842F4004202600268A4
:1008700042F4A052026046F21942C0F6401240F81B
:10088000042C50F8082C42F0807240F8082C00BF6D
:1008900050F8082C9201FBD50A6842F480320A60B5
:1008A0004A68D203FCD50A6842F400320A6000BFED
:1008B0004A689203FCD5016821F0030101600168D8
:1008C00041F00201016000BF01680907FCD57047D3
:1008D00080B5FFF79FFF80BD80B540F20000C2F2F7
:1008E0000000006844F6D351C1F26201A0FB01018F
:1008F0008809FFF7A5FC00B1FEE70020FFF794FC94
:1009000080BD0000016841F0800101607047000077
:1009100080B5032900F2B180DFE801F002B0428621
:10092000016A21F001010162816921F00301816105
:100930001188036A19430162016A002321F0020150
:100940000162B2F804C0D0F820E020F48061C4F263
:10095000010399424EEA0C01016240F08E80016A67
:1009600021F0040101625188036A19430162016A9E
:1009700021F008010162D188036A194301624168CC
:1009800021F48071416011894368194341604168D5
:1009900021F400714160518942681143416080BD7A
:1009A000016A21F480710162C16921F00301C16112
:1009B0001188036A43EA01210162016A002321F4DC
:1009C00000710162B2F804C0D0F820E020F4806128
:1009D000C4F2010399424EEA0C2101624DD1016A31
:1009E00021F4806101625188036A43EA01210162B6
:1009F000016A21F400610162D188036A43EA01219E
:100A00000162416821F4805141601189436843EAE1
:100A100001114160416821F40051416051894268EF
:100A200042EA0111416080BD016A21F480510162F6
:100A3000C16921F44071C1611188036A43EA01313F
:100A40000162016A002321F400510162B2F804C07E
:100A5000D0F820E020F48061C4F2010399424EEA0C
:100A60000C31016218BF80BD416821F480414160B2
:100A70001189426842EA8111416080BD016A21F01A
:100A800010010162816921F4407181611188036A5A
:100A900043EA01110162016A002321F02001016291
:100AA000B2F804C0D0F820E020F48061C4F2010361
:100AB00099424EEA0C110162DFD1016A21F0400136
:100AC00001625188036A43EA01110162016A21F05F
:100AD00080010162D188036A43EA01110162416821
:100AE00021F4806141601189436843EA81014160DA
:100AF000416821F4006141605189426842EA810104
:100B0000416080BD032988BF7047DFE801F0020E15
:100B1000050B50F8181F01E050F81C1F21F0700160
:100B2000016008E050F81C1F01E050F8181F21F484
:100B3000E04112020160016811430160704700004A
:100B400003299CBF00EB810042637047032988BFE3
:100B50007047DFE801F0020E050B50F8181F01E0A6
:100B600050F81C1F21F00801016008E050F81C1F1C
:100B700001E050F8181F21F40061120201600168C1
:100B80001143016070470000B0B588B041F2010028
:100B9000FFF7CEFD40F20044C4F20004204600F00E
:100BA00031F840F2E73001904CF24F3000250390CD
:100BB00001A9204602958DF8105000F0CBF80120D5
:100BC000ADF8140005AA20460021ADF81850FFF733
:100BD0009FFE2046002146F2A712FFF7B1FF2046F4
:100BE00000216022FFF78EFF204600210022FFF740
:100BF000ADFF2046FFF786FE204600F0A5F808B0BE
:100C0000B0BD000010B541F6FF31C4F200018842CA
:100C10001BDC40F6FF31C4F20001884230DD41F2B6
:100C2000FF31C4F20001884250DC40F60041C4F2BA
:100C30000001884269D041F20001C4F200018842FB
:100C400040F0808040F6040476E040F2FF31C4F2C8
:100C50000101884226DD44F2FF31C4F201018842DD
:100C600043DC40F20041C4F20101884250D044F21A
:100C70000001C4F20101884264D14FF411645BE0C9
:100C8000B0F1804F47D040F20041C4F200018842E9
:100C900044D040F60001C4F20001884252D140F62F
:100CA000020449E041F60041C4F20001884238D014
:100CB00042F20001C4F20001884235D00021C4F2A2
:100CC000010188423ED14FF4106435E041F2004109
:100CD000C4F2000188422AD041F60001C4F20001AA
:100CE00088422FD140F6060426E044F20041C4F2C7
:100CF000010188421ED044F60001C4F2010188427D
:100D000018BF10BD40F6121416E040F6030413E0BD
:100D100040F6011410E04FF400640DE040F60104C9
:100D20000AE040F6070407E040F6080404E040F655
:100D3000050401E040F611142046FFF719FD204696
:100D4000FFF706FD10BD0000016841F001010160E0
:100D50007047000080B540F6FF330A88C4F20003F4
:100D6000984282620FDCB0F1804F1DD040F2004209
:100D7000C4F20002904217D040F60002C4F2000212
:100D8000904211D01CE040F60042C4F200029042B2
:100D90000AD040F20042C4F20102904204D0002284
:100DA000C4F2010290420BD1026822F0700202608C
:100DB0004A8803681A4302608A8803681A430260FB
:100DC00041F2000CC4F2000C8A6820F48063634591
:100DD000C26210D0026822F440720260B1F806E0EC
:100DE00002684EEA020E0CF57042C0F800E0934231
:100DF00004BF097B0163416941F00101416180BD8C
:100E000002E008C8121F08C1002AFAD170477047D3
:100E1000002001E001C1121F002AFBD17047000031
:100E2000400E00080000002008000000000E00082E
:100E3000480E00080800002008040000100E0008FA
:080E400000C2EB0B00000000F2
:040000050800018965
:00000001FF
