:020000040800F2
:10000000100400209D0100081902000811020008D8
:1000100015020008E50100081903000800000000AF
:100020000000000000000000000000003102000895
:10003000E9010008000000002D020008610200082C
:10004000B7010008B7010008B7010008B7010008B0
:10005000B7010008B7010008ED010008B70100086A
:10006000B7010008B7010008B7010008B701000890
:10007000B7010008B7010008B7010008B701000880
:10008000B7010008B7010008B7010008B701000870
:10009000B7010008B7010008B7010008B701000860
:1000A000B7010008B7010008B7010008B701000850
:1000B000B7010008B7010008B7010008B701000840
:1000C000B7010008B7010008B7010008B701000830
:1000D000B7010008B7010008B7010008B701000820
:1000E000B7010008B7010008B7010008B701000810
:1000F000B7010008B7010008B7010008B701000800
:10010000B7010008B7010008B7010008B7010008EF
:10011000B7010008B7010008B7010008B7010008DF
:10012000B7010008B7010008B7010008B7010008CF
:10013000B7010008B7010008B7010008B7010008BF
:10014000B7010008B7010008B7010008B7010008AF
:10015000B7010008B7010008B7010008B70100089F
:10016000B7010008B7010008B7010008B70100088F
:10017000B7010008B7010008B7010008000000003F
:10018000B7010008B7010008DFF80CD000F018F83C
:1001900000480047F5040008100400200648804786
:1001A00006480047FEE7FEE7FEE7FEE7FEE7FEE75C
:1001B000FEE7FEE7FEE7FEE76902000889010008A6
:1001C000064C074D06E0E06840F0010394E80700A4
:1001D00098471034AC42F6D3FFF7DAFFDC0700088B
:1001E000FC070008FEE700007047000080B5012012
:1001F00000F0FEF8002808BF80BD40F60000C4F201
:100200000200402100F008F9012000F0EBF880BD69
:10021000FEE70000FEE70000704700004EF62351A5
:100220000001CEF200010870704700007047000026
:1002300070470000B0B501380024B4EB106F1CBF4C
:100240000120B0BD4EF21005CEF2000568600F200F
:10025000FFF7E4FF0720AC6028602046B0BD000037
:1002600080B500F065F880BD80B582B04EF688514B
:10027000CEF200010A6843F6080042F47002C4F2AC
:1002800002000A6050F8081C41F0010140F8081C07
:1002900050F8081C8907FBD5016841F08001016016
:1002A00000210191019A4F2A06D800BF019A01321C
:1002B0000192019A502AF9D3026842F0900202603A
:1002C000019101994F2905D80199013101910199B5
:1002D0005029F9D301684FF6FF7221F00301016044
:1002E00050F8081CCFF6F662114040F8081C50F890
:1002F000081C21F4802140F8081C002101600268DC
:1003000043F21002C2F2004240F8042C416000F0B7
:100310003DFA02B080BD0000FEE7000040F2080197
:10032000C2F20001086000BF08680028FCD17047D5
:1003300040F20800C2F200000168002908BF7047BF
:10034000016801390160704743F6084CC4F2010CA2
:100350005CF8083C012923EA00034CF8083C5CF8EF
:10036000043C23EA00034CF8043CDCF8003023EAA8
:100370000003CCF80030DCF8043023EA0003CCF8AA
:10038000043019D021B95CF8081C01434CF8081C52
:10039000022A18D0012A6FEA000118D0002A18BFDB
:1003A0007047DCF800201043CCF80000DCF80400B3
:1003B0000840CCF8040070475CF8041C01434CF87A
:1003C000041C022AE6D1DCF80010014302E0DCF84C
:1003D00000201140CCF80010DCF804100843CCF8E1
:1003E0000400704743F61441C4F2010108607047ED
:1003F00043F60041C4F201014A690968024000EA7B
:10040000010018BF0122002818BF012010407047CA
:100410008162704781617047C16270472DE9F04188
:10042000D0F800E0D0F80CC000244FF003080026FC
:1004300005E000BF0136102E04F1020412D023FAA9
:1004400006F7FF07F6D008FA04F72EEA070E01FABE
:1004500004F54EEA050E2CEA070702FA04F547EA0E
:10046000050CE7E7C0F800E0C0F80CC0BDE8F0817B
:10047000B0B50129416814BF994319434160D0F8D0
:1004800008C000214FF0030E002404E00134102CBA
:1004900001F102010CD023FA04F5ED07F6D00EFAB3
:1004A00001F52CEA050C02FA01F54CEA050CEDE722
:1004B000C0F808C0B0BD000070B5002808BF70BD0E
:1004C00040F6000504460026C4F202054FF4FA7017
:1004D000FFF724FF28464021FFF79CFF4FF4FA70F6
:1004E000FFF71CFF28464021FFF792FF0136A64286
:1004F000ECD370BD00F04EF940F6024000F096F8E3
:1005000040F60004C4F202042046012100224023E8
:10051000FFF784FF2046002102224023FFF7A8FFB7
:1005200020464021FFF774FF0120FFF7C5FF4FF47D
:10053000406000F07BF841F20E1000F077F8A4F56F
:100540000060002100220123FFF768FF062002213E
:10055000002200F00FF80020002100F077F80120C1
:1005600000210122FFF7F0FE0120FFF73BFF00BF53
:10057000FEE7000070B515464EF60C52CEF20002B2
:1005800013680E4603F4E061B1F5E06F044601D153
:10059000042024E0106800F4E060B0F5C06F01D1E1
:1005A00003201CE0106800F4E060B0F5A06F01D1FA
:1005B000022014E0106800F4E060B0F5806F01D113
:1005C00001200CE0106800F4E060B0F5407F01D13C
:1005D000002004E04FF4A06000F01EF8022006FAAC
:1005E00000F1C0F104000F2222FA00F02840084375
:1005F0004EF20011CEF20001000144EA010282F83D
:10060000000304F01F00012202FA00F01C2202EA9B
:10061000D402505070BD000040F080604EF60C5186
:1006200040F0FD70CEF200010860704743F6000311
:1006300000F01F018009C4F202034FF0010CC25800
:100640000CFA01F11143C150704700008A08032AD7
:1006500088BF70470C2303EA81010F238B4000FA07
:1006600001FC01EB8200D943DFE802F002260E1AFA
:1006700043F60800C4F201000268114001600168FD
:1006800041EA0C010160704743F60800C4F2010022
:10069000826811408160816841EA0C018160704785
:1006A00043F60800C4F20100C2681140C160C1688D
:1006B00041EA0C01C160704743F60800C4F2010032
:1006C000426811404160416841EA0C014160704755
:1006D00043F60800C4F2020050F8081C41F48031CF
:1006E00040F8081C4FF6FE7150F8083C4A1E8A423A
:1006F00003D213F400311146F6D050F8081C8903D8
:1007000001D400BFFEE7826B47F2000142F0805245
:10071000C4F2000182630A6842F440420A6002683F
:100720000260026842F400420260026842F4A05291
:10073000026046F21942C0F6401240F8042C50F80C
:10074000082C42F0807240F8082C00BF50F8082CAA
:100750009201FBD50A6842F480320A604A68D203EB
:10076000FCD50A6842F400320A6000BF4A6892036E
:10077000FCD5016821F003010160016841F002012C
:10078000016000BF01680907FCD5704780B5FFF71D
:100790009FFF80BD80B540F20000C2F200000068FB
:1007A00044F6D351C1F26201A0FB01018809FFF7B1
:1007B00041FD00B1FEE70020FFF730FD80BD02E003
:1007C00008C8121F08C1002AFAD1704770470020DC
:1007D00001E001C1121F002AFBD170470008000888
:1007E0000000002008000000BE07000808080008FC
:1007F0000800002008040000CE07000800000000E8
:0808000000C2EB0B0000000038
:040000050800018965
:00000001FF
