:020000040800F2
:10000000100C00209D0100084D0200084502000868
:10001000490200083D020008210600080000000017
:10002000000000000000000000000000390500088A
:1000300041020008000000003505000869050008BD
:10004000B7010008B7010008B7010008B7010008B0
:10005000B7010008B7010008B7010008B7010008A0
:10006000B7010008B7010008B7010008B701000890
:10007000B7010008B7010008B7010008B701000880
:10008000B7010008B7010008B7010008B701000870
:10009000B7010008B7010008B7010008B701000860
:1000A000B7010008B7010008B7010008B701000850
:1000B000B7010008B7010008B7010008B701000840
:1000C000B7010008B7010008B7010008B701000830
:1000D000B7010008B7010008B7010008B701000820
:1000E000B7010008B7010008B7010008B701000810
:1000F000B7010008B7010008B7010008B701000800
:10010000B7010008B7010008B7010008B7010008EF
:10011000B7010008B7010008B7010008B7010008DF
:10012000B7010008B7010008B7010008B7010008CF
:10013000B7010008B7010008B7010008B7010008BF
:10014000B7010008B7010008B7010008B7010008AF
:10015000B7010008B7010008B7010008B70100089F
:10016000B7010008B7010008B7010008B70100088F
:10017000B7010008B7010008B7010008000000003F
:10018000B7010008B7010008DFF80CD000F018F83C
:10019000004800475D070008100C00200648804713
:1001A00006480047FEE7FEE7FEE7FEE7FEE7FEE75C
:1001B000FEE7FEE7FEE7FEE771050008890100089B
:1001C000064C074D06E0E06840F0010394E80700A4
:1001D00098471034AC42F6D3FFF7DAFF5009000815
:1001E0007009000870B58C1810F8015B15F0070352
:1001F00001D110F8013B2A1106D110F8012B03E0C0
:1002000010F8016B01F8016B5B1EF9D12B0705D4C7
:100210000023521E0DD401F8013BFAE710F8013B10
:10022000CB1A921C03E013F8015B01F8015B521E2C
:10023000F9D5A142D8D3002070BD0000FEE7000030
:1002400070470000FEE70000FEE700007047000076
:100250004EF623510001CEF20001087070470000F5
:1002600070B540F2004405460826C4F2020400BFFF
:10027000E8B2C20920464FF4007100F0EBF92046C5
:100280004FF48071012200F0E5F920464FF48071AF
:10029000002200F0DFF9013E4FEA4505E8D1204693
:1002A0004FF40071012200F0D5F920464FF480711F
:1002B000012200F0CFF920464FF48071002200F0B7
:1002C000C9F970BD80B540F208410020C2F20001BA
:1002D0004FF0000C6FF00703CA180833B3F57E7FA8
:1002E0001072F9D10CF1010CBCF1080F01F1010100
:1002F000F0D100F0E5F880BD2DE9F04F81B09942D2
:100300002ED20A9D9A4690460E468346101A002722
:10031000009005E03C460136F0B2504527461FD21A
:10032000A6F15000C0B2002100F0F0F8002000213A
:1003300000F0ECF81020002100F0E8F8D845E9D9E9
:10034000009800EB070900BFE85D01217C1C00F06C
:10035000DDF8E0B25FFA89F181422746F4D1DAE7AD
:1003600001B0BDE8F08F000010B540F20044C4F2C7
:10037000020420464FF48071012200F06BF9204600
:100380004FF40071012200F065F920464FF400712E
:10039000002200F05FF920464FF48071002200F047
:1003A00059F910BD10B540F20044C4F202042046D1
:1003B0004FF48071002200F04DF920464FF4007197
:1003C000002200F047F920464FF48071012200F02E
:1003D00041F920464FF40071012200F03BF910BDB5
:1003E00080B500F091F94FF4FA7000F01BF9AE20DF
:1003F000002100F08BF8D520002100F087F8502074
:10040000002100F083F8A820002100F07FF83F20B1
:10041000002100F07BF8D320002100F077F80020C5
:10042000002100F073F84020002100F06FF88D20CB
:10043000002100F06BF81420002100F067F8202064
:10044000002100F063F80220002100F05FF8A120F5
:10045000002100F05BF8C020002100F057F8DA20FE
:10046000002100F053F81220002100F04FF8812005
:10047000002100F04BF8EF20002100F047F8D920D0
:10048000002100F043F8F120002100F03FF8DB20CC
:10049000002100F03BF83020002100F037F8A420C4
:1004A000002100F033F8A620002100F02FF8AF2043
:1004B000002100F02BF8FFF705FF00F001F880BDE8
:1004C00070B540F208450024C2F20005A4F15000C6
:1004D000C0B2002100F01AF80020002100F016F848
:1004E0001020002100F012F86FF00706A819007A1A
:1004F000012100F00BF80836B6F57E7FF6D1013405
:10050000082C05F1010508BF70BDDFE7B0B50C464A
:100510000546002918BF0124FFF726FF7820FFF7C2
:100520009FFEA001FFF79CFE2846FFF799FEFFF70C
:1005300039FFB0BD7047000070470000B0B501380A
:100540000024B4EB106F1CBF0120B0BD4EF21005AB
:10055000CEF2000568600F20FFF77AFE0720AC603E
:1005600028602046B0BD000080B500F065F880BD71
:1005700080B582B04EF68851CEF200010A6843F68B
:10058000080042F47002C4F202000A6050F8081C2D
:1005900041F0010140F8081C50F8081C8907FBD500
:1005A000016841F08001016000210191019A4F2A08
:1005B00006D800BF019A01320192019A502AF9D35C
:1005C000026842F090020260019101994F2905D81A
:1005D00001990131019101995029F9D301684FF630
:1005E000FF7221F00301016050F8081CCFF6F6629B
:1005F000114040F8081C50F8081C21F4802140F8F4
:10060000081C00210160026843F21002C2F200429D
:1006100040F8042C416000F059F902B080BD0000A0
:10062000FEE7000040F60801C2F20001086000BFCA
:1006300008680028FCD1704740F60800C2F20000AC
:100640000168002908BF70470168013901607047DF
:10065000816270471823002A08BF28231950704769
:100660000069084018BF0120704700002DE9F041E3
:10067000D0F800E0D0F80CC000244FF003080026AA
:1006800005E000BF0136102E04F1020412D023FA57
:1006900006F7FF07F6D008FA04F72EEA070E01FA6C
:1006A00004F54EEA050E2CEA070702FA04F547EABC
:1006B000050CE7E7C0F800E0C0F80CC0BDE8F08129
:1006C000B0B50129416814BF994319434160D0F87E
:1006D00008C000214FF0030E002404E00134102C68
:1006E00001F102010CD023FA04F5ED07F6D00EFA61
:1006F00001F52CEA050C02FA01F54CEA050CEDE7D0
:10070000C0F808C0B0BD000010B540F6014000F0D0
:100710006FF840F6014000F06BF840F20044C4F27C
:1007200002042046012101224FF48073FFF79EFF4F
:100730002046002102224FF48073FFF7C1FF2046BC
:10074000012101224FF40073FFF790FF20460121A1
:1007500002224FF40073FFF7B3FF10BD40F6000410
:10076000C4F2020400F0B6F840F6024000F040F88F
:100770002046012100224023FFF778FF2046002178
:1007800002224023FFF79CFF20464021FFF760FF35
:100790004FF4406000F02CF8A4F5006528460021D5
:1007A00000220123FFF762FF00F0AAF8284601218A
:1007B000FFF756FF0028F9D16420FFF733FF2846E2
:1007C0000121FFF74DFF58B920464021FFF748FFB0
:1007D000C0F10100C2B220464021FFF73BFF00BF3D
:1007E00028460121FFF73CFF0028F9D0DEE7000092
:1007F00043F6000300F01F018009C4F202034FF02A
:10080000010CC2580CFA01F11143C15070470000AD
:1008100043F60800C4F2020050F8081C41F480318D
:1008200040F8081C4FF6FE7150F8083C4A1E8A42F8
:1008300003D213F400311146F6D050F8081C890396
:1008400001D400BFFEE7826B47F2000142F0805204
:10085000C4F2000182630A6842F440420A600268FE
:100860000260026842F400420260026842F4A05250
:10087000026046F21942C0F6401240F8042C50F8CB
:10088000082C42F0807240F8082C00BF50F8082C69
:100890009201FBD50A6842F480320A604A68D203AA
:1008A000FCD50A6842F400320A6000BF4A6892032D
:1008B000FCD5016821F003010160016841F00201EB
:1008C000016000BF01680907FCD5704780B5FFF7DC
:1008D0009FFF80BD80B540F20000C2F200000068BA
:1008E00044F6D351C1F26201A0FB01018809FFF770
:1008F00025FE00B1FEE70020FFF7AAFC80BD000046
:1009000080B582B0FFF76CFDFFF7DCFC40F2040C11
:10091000C2F2000C0020002180220823CDF800C084
:10092000FFF7EAFC4FF47A70FFF77CFE02B080BD5F
:1009300002E008C8121F08C1002AFAD170477047A8
:10094000002001E001C1121F002AFBD17047000006
:10095000700900080000002008040000E4010008FD
:10096000600A000808040020080800004009000888
:10097000110645C2EB0B010148098080C040404090
:100980006020010B44604055F80DC0602030101805
:1009900008080404040201180E0604040C0890F070
:1009A0003068CCC643417D054BC08080800518E08F
:1009B000380E016B0103835809070C080808101052
:1009C00010180F42010102061CF087033AF80F04C9
:1009D000410778C00B3A0738440A2FFFEF1B0C047D
:1009E00001950C38E0809C0107180E012B0512C000
:1009F000300E01480880E0180C06020101E403CE25
:100A0000785B1F70EFC31FF0080A1F01030C18303A
:100A10002060C08089080C1380804020203010089E
:100A20000C0603948B3807290C1060300FA1000AC4
:100A30001501070C18101010180F19B32D0202061B
:100A400004018B0C080139110E110202020301F29C
:100A5000C10809130F080C04040602022700000055
:040000050800018965
:00000001FF
