:020000040800F2
:10000000100400209D010008F5010008ED01000822
:10001000F1010008E5010008F502000800000000F9
:100020000000000000000000000000000D020008B9
:10003000E901000800000000090200083D02000874
:10004000B7010008B7010008B7010008B7010008B0
:10005000B7010008B7010008B7010008B7010008A0
:10006000B7010008B7010008B7010008B701000890
:10007000B7010008B7010008B7010008B701000880
:10008000B7010008B7010008B7010008B701000870
:10009000B7010008B7010008B7010008B701000860
:1000A000B7010008B7010008B7010008B701000850
:1000B000B7010008B7010008B7010008B701000840
:1000C000B7010008B7010008B7010008B701000830
:1000D000B7010008B7010008B7010008B701000820
:1000E000B7010008B7010008B7010008B701000810
:1000F000B7010008B7010008B7010008B701000800
:10010000B7010008B7010008B7010008B7010008EF
:10011000B7010008B7010008B7010008B7010008DF
:10012000B7010008B7010008B7010008B7010008CF
:10013000B7010008B7010008B7010008B7010008BF
:10014000B7010008B7010008B7010008B7010008AF
:10015000B7010008B7010008B7010008B70100089F
:10016000B7010008B7010008B7010008B70100088F
:10017000B7010008B7010008B7010008000000003F
:10018000B7010008B7010008DFF80CD000F018F83C
:1001900000480047C90300081004002006488047B3
:1001A00006480047FEE7FEE7FEE7FEE7FEE7FEE75C
:1001B000FEE7FEE7FEE7FEE74502000889010008CA
:1001C000064C074D06E0E06840F0010394E80700A4
:1001D00098471034AC42F6D3FFF7DAFF4805000821
:1001E00068050008FEE7000070470000FEE7000019
:1001F000FEE70000704700004EF623510001CEF2EA
:100200000001087070470000704700007047000050
:10021000B0B501380024B4EB106F1CBF0120B0BD95
:100220004EF21005CEF2000568600F20FFF7E4FFE4
:100230000720AC6028602046B0BD000080B500F00B
:1002400065F880BD80B582B04EF68851CEF20001CF
:100250000A6843F6080042F47002C4F202000A6021
:1002600050F8081C41F0010140F8081C50F8081C27
:100270008907FBD5016841F08001016000210191EF
:10028000019A4F2A06D800BF019A01320192019AC1
:10029000502AF9D3026842F090020260019101995C
:1002A0004F2905D801990131019101995029F9D3BC
:1002B00001684FF6FF7221F00301016050F8081C3D
:1002C000CFF6F662114040F8081C50F8081C21F4E3
:1002D000802140F8081C00210160026843F21002EE
:1002E000C2F2004240F8042C416000F005F902B06F
:1002F00080BD0000FEE7000040F20801C2F20001EC
:10030000086000BF08680028FCD1704740F2080070
:10031000C2F200000168002908BF70470168013976
:100320000160704781627047816170472DE9F0413B
:10033000D0F800E0D0F80CC000244FF003080026ED
:1003400005E000BF0136102E04F1020412D023FA9A
:1003500006F7FF07F6D008FA04F72EEA070E01FAAF
:1003600004F54EEA050E2CEA070702FA04F547EAFF
:10037000050CE7E7C0F800E0C0F80CC0BDE8F0816C
:10038000B0B50129416814BF994319434160D0F8C1
:1003900008C000214FF0030E002404E00134102CAB
:1003A00001F102010CD023FA04F5ED07F6D00EFAA4
:1003B00001F52CEA050C02FA01F54CEA050CEDE713
:1003C000C0F808C0B0BD000040F60004C4F202044A
:1003D00000F096F840F6024000F020F82046012197
:1003E00000224023FFF7A2FF2046002102224023E3
:1003F000FFF7C6FF20464021FFF794FF204640212B
:10040000FFF792FF6420FFF777FF20464021FFF7B8
:1004100089FF4FF49670FFF76FFFEFE743F6000395
:1004200000F01F018009C4F202034FF0010CC25812
:100430000CFA01F11143C1507047000043F6080067
:10044000C4F2020050F8081C41F4803140F8081C46
:100450004FF6FE7150F8083C4A1E8A4203D213F44C
:1004600000311146F6D050F8081C890301D400BFB2
:10047000FEE7826B47F2000142F08052C4F20001B5
:1004800082630A6842F440420A60026802600268BD
:1004900042F400420260026842F4A052026046F256
:1004A0001942C0F6401240F8042C50F8082C42F0D3
:1004B000807240F8082C00BF50F8082C9201FBD540
:1004C0000A6842F480320A604A68D203FCD50A689E
:1004D00042F400320A6000BF4A689203FCD501680A
:1004E00021F003010160016841F00201016000BFD9
:1004F00001680907FCD5704780B5FFF79FFF80BDF5
:1005000080B540F20000C2F20000006844F6D3510A
:10051000C1F26201A0FB01018809FFF779FE00B179
:10052000FEE70020FFF768FE80BD02E008C8121F4A
:1005300008C1002AFAD170477047002001E001C1CC
:10054000121F002AFBD17047680500080000002038
:10055000080000002A0500087005000808000020B7
:10056000080400003A05000800C2EB0B0000000080
:040000050800018965
:00000001FF
